:020000040800F2
:1000000058140020ED010008FD47000805350008E0
:10001000F9470008FD0700089D7F00080000000068
:10002000000000000000000000000000295B000844
:100030001108000800000000014900082D6C0008AC
:10004000070200080702000807020008070200086C
:10005000070200080702000807020008070200085C
:10006000070200080702000807020008070200084C
:10007000070200080702000807020008070200083C
:10008000070200080000000007020008070200083D
:1000900007020008250800080702000807020008F8
:1000A000070200080702000807020008070200080C
:1000B00007020008070200080702000807020008FC
:1000C000070200080702000807020008F55A0008A6
:1000D00007020008070200080702000807020008DC
:1000E00007020008070200080702000807020008CC
:1000F00007020008070200080702000800000000CD
:1001000000000000070200080000000007020008CD
:1001100007020008000000000702000807020008AC
:10012000070200080702000807020008070200088B
:10013000070200080000000000000000070200089D
:10014000070200080702000800000000000000008D
:10015000000000000000000000000000000000009F
:10016000000000000000000000000000070200087E
:10017000070200080000000000000000000000006E
:10018000000000000702000800000000000000005E
:10019000000000000000000000000000000000005F
:1001A000000000000000000007020008070200082D
:1001B000070200080702000807020008000000000C
:1001C000000000000702000800000000000000001E
:1001D0000702000807020008DFF80CD000F0FCFA64
:1001E00000480047A5B00008581400200648804782
:1001F00006480047FEE7FEE7FEE7FEE7FEE7FEE70C
:10020000FEE7FEE7FEE7FEE75D740008D90100089F
:100210002DE9F05F0546002092469B46884606463B
:10022000814640241BE0284641464746224600F0CE
:1002300043F953465A46C01A914110D31146184605
:10024000224600F02AF92D1A67EB01084F46224694
:100250000120002100F021F917EB00094E41201E7A
:10026000A4F10104DFDC484631462A464346BDE896
:10027000F09F002800DA4042704710B5441A034648
:10028000944209D28418114403E011F8013D04F8A6
:10029000013D521EF9D210BD40EA0104A40703D06B
:1002A00009E010C9121F10C3042AFAD203E011F8A2
:1002B000014B03F8014B521EF9D210BDD2B201E03E
:1002C00000F8012B491EFBD270470022F6E710B55B
:1002D00013460A4604461946FFF7F0FF204610BDB4
:1002E00030B504460020034600E05B1C934203D275
:1002F000E05CCD5C401BF8D030BD2DE9FE4F804660
:1003000081EA0300C00F0C46009021F0004123F069
:100310000045B8EB0200A94105D24046214690466F
:100320001C460B46024623F00040104347D0270DE1
:10033000C7F30A00C3F30A510290401A0190402803
:100340006BDAC3F3130040F4801B0098924620B18F
:100350000023D2EB030A63EB0B0B01985946C0F163
:100360004002504600F099F806460D465046594660
:10037000019A00F0B1F810EB08006141002487EA0F
:10038000115284EAE7731A4340D0009A62B3019A8B
:10039000012A4FEA075215DC001B61EB02014FF006
:1003A000004202EA0752CDE90042001C41F58011EB
:1003B00032462B4600F0B1F803B0BDE8F08F40465E
:1003C0002146F9E7001B61EB0201001C41F5801397
:1003D00000185B412018A2F5001747EB030140EA23
:1003E000D570B6196D4111E06D084FEA360645EA41
:1003F000C0754FEA0752001B61EB0201001C41F57A
:10040000801149084FEA30000019514132462B460D
:1004100003B0BDE8F04F00F071B800980122400031
:100420000023D0EB020263EBE073009821464FEA11
:10043000E074B8EB000061EB0401E9E783F00043EE
:100440005BE781F0004158E700F0004230F00040E7
:100450000AD0C10D01F56071C0F3160042EA0151E6
:10046000C20840071143704700200146704730B56D
:100470000B46014600202022012409E021FA02F562
:100480009D4205D303FA02F5491B04FA02F52844FC
:10049000151EA2F10102F1DC30BD202A04DB203A56
:1004A00000FA02F1002070479140C2F1200320FAC7
:1004B00003F3194390407047202A04DB203A21FAC5
:1004C00002F00021704721FA02F3D040C2F120026D
:1004D0009140084319467047202A06DBCB17203A83
:1004E00041FA02F043EAE07306E041FA02F3D04039
:1004F000C2F12002914008431946704710B5141EFE
:1005000073F1000408DA401C41F1000192185B41CC
:100510001A4301D120F0010010BD2DE9F04D9246A3
:100520009B4611B1B1FA81F202E0B0FA80F22032BA
:100530009046FFF7B2FF04460F4640EA0A0041EA40
:100540000B0153465A46084313D0114653EA0100A3
:1005500019D0C8F140025046FFF7AEFF05460E46DF
:10056000504659464246FFF798FF084305D0012000
:1005700004E020463946BDE8F08D0020054346EAF8
:10058000E0762C4337430A986305E40AA0EB0800A1
:100590000022FD0A44EA47540A3002D500200146F1
:1005A000E9E7010510196941DDE9084500196941CC
:1005B000BDE8F04DA2E72DE9FE4F81EA030404F007
:1005C000004421F0004100944FF0000B23F0004361
:1005D00050EA01045ED052EA03045BD0C3F30A542C
:1005E000C1F30A552C44A4F2F3340194A0FB025445
:1005F000C1F3130141F48011C3F3130343F48013D7
:1006000001FB024400FB034E840A970A44EA81542A
:1006100047EA8357A4FB076802958D0A05FB078507
:100620004FEA932C04FB0C542705029D4FEA065811
:1006300047EA1637B5EB08056EEB070C870E920EEE
:1006400047EA811742EA8312A7FB0201B6EB0B01CE
:1006500064EB00042B0D43EA0C335E1844EB1C5092
:10066000DA465146E7FB0201C5F313044FEA0B33A8
:1006700043EA14534FEA0432019C43EA0603A4F10F
:100680000C040294009CCDE900B4FFF746FF03B0D0
:10069000BDE8F08F00200146F9E72DE9F04D81EA31
:1006A000030404F0004B21F0004514464FF0000A0B
:1006B00023F0004150EA050220D054EA01021DD087
:1006C000C5F30A570246C5F31303C1F31300C1F380
:1006D0000A5640F4801543F48013A7EB0608101B5C
:1006E000D64608F2FD3873EB050002D308F1010885
:1006F00001E092185B41B8F1000F03DA00200146D7
:10070000BDE8F08D00204FF48011064684460EE0CF
:10071000171B73EB050705D3121B63EB0503064399
:100720004CEA010C49084FEA300092185B4150EA4C
:100730000107EDD152EA030012D082EA040083EAF5
:100740000501084305D0101BAB4106D2012200234E
:1007500006E000224FF0004302E06FF00102531068
:100760001AEB06004CEB085110EB0A0041EB0B01B1
:10077000BDE8F04DFFF7C2BEC1F30A52C1F3130149
:1007800040F2FF3341F480119A4202DA0020014620
:10079000704740F233439A42A2F2334202DC5242A3
:1007A000FFF78ABEFFF779BE30B5041E71F1000471
:1007B00004DB4FF00044404264EB0101141E73F16E
:1007C000000405DB1C464FF00043524263EB040378
:1007D000994208BF904230BD064C074D06E0E068E4
:1007E00040F0010394E8070098471034AC42F6D378
:1007F000FFF7F6FCA8C90008C8C90008FFE7FEE734
:1008000080B54FF09040102103F090FC80BD0000B7
:100810007047000081B0EFF3108072B60090FFE7E0
:10082000FEE7000080B540F26410C2F2000001F063
:100830003DFD80BD84B0014603904AF20040C4F201
:10084000000001900198039A106403980068D0F8A2
:10085000800020F4F810039A1368526B40EA0240BB
:10086000C3F8800001987030039A506403980068C0
:10087000D0F8800020F07060039A1368926B40EA11
:100880000260C3F880000198B030039A9064019828
:1008900000F5C470039AD064019800F51870039AAB
:1008A0001065019800F51E70039A5065019802903A
:1008B0000091FFE70298019901F55471884208D22E
:1008C000FFE7029800210160FFE7029804300290E0
:1008D000F0E704B0704700002DE9F843AC2204466D
:1008E00000217030FFF7F3FC4FF074090021294D0F
:1008F00001274FF0804688464A4604F58E70FFF780
:10090000E6FC4A46C4F85C51C4F86051C4F864512E
:100910004146C4F88071C4F8346104F5C870FFF72B
:10092000D6FCC4F8D051C4F8D451C4F8D8514146CB
:100930004822C4F8F471C4F8A86104F50170E569AF
:10094000FFF7C5FC4FF400431349C4F814521822B2
:10095000C4F81C52C4F82852C4F83852C4F83C52A7
:10096000C4F84052C4F84452C4F88050C4F88450CB
:10097000C4F88850C4F8C070C4F8AC60C4F8A810BB
:10098000C4F8F820C4F8D430C4F8D830C4F8DC3047
:10099000BDE8F8834C621000400D03002DE9F04FD4
:1009A000044683B0D4F8A43001938846174600214A
:1009B000AC227030D4F8A8B0794EFFF788FC002143
:1009C0000D464FF0010A4FF08049742204F58E70F5
:1009D000FFF77DFC2946C4F85C61C4F86061C4F887
:1009E00064617422C4F880A1C4F8349104F5C8701D
:1009F000FFF76DFC2946C4F8D061C4F8D461C4F88F
:100A0000D8614822C4F8F4A1C4F8A89104F5017093
:100A1000E5694FF40046FFF75AFC1821019BC4F822
:100A2000F810C4F81452C4F81C52C4F82852C4F880
:100A30003852C4F83C52C4F84052C4F84452C4F886
:100A40008050C4F88450C4F88850C4F8A430C4F866
:100A5000A8B0C4F8C0A0C4F8AC90C4F8D460C4F87E
:100A6000D860C4F8DC60D8F8000022784D4900EB6B
:100A70008000C0EBC000002A51D009F069FFC4F823
:100A80008C00D8F80400474900EB8000C0EBC000A0
:100A900009F05EFFC4F89000D8F80800414900EB67
:100AA0008000C0EBC00009F053FFD4F88C20D4F8CC
:100AB0009030C4F894005745C4F8A000E067C4F82B
:100AC000E800C4F8EC70C4F8F070C4F8F470C4F82E
:100AD0000071C4F80471C4F80871C4F88060C4F8E7
:100AE0008460C4F88860C4F83C62C4F84062C4F80A
:100AF0004462C4F898206267C4F8E020C4F89C30CF
:100B0000A367C4F8E43027D0022F42D0032F20D1AE
:100B100042F2BA634FF47A714FF4FA6222E009F0BC
:100B200017FFC4F80402D8F804001E4900EB800047
:100B3000C0EBC00009F00CFFC4F80402D8F80800AC
:100B4000184900EB8000C0EBC00009F001FFC4F8B9
:100B5000040203B0BDE8F08F43F63E734FF47A61B0
:100B60004FF4FA52C4F81432C4F81C32C4F82832D4
:100B7000C4F83832C4F88010C4F88410C4F888105F
:100B8000C4F83C22C4F84022C4F8442203B0BDE8B3
:100B9000F08F42F6B8434FF4FA614FF47A62E1E71E
:100BA0004C6210007845D43F2DE9F047154643F6D6
:100BB000982282B095428046D8BF4DF2B712456068
:100BC0001C46D8BF6A430F9B88F80010C8BF4FF07F
:100BD000005205F57120C8F80820C8F80C306946A5
:100BE00000F533600B9E129F09F0F8FC009BC8F8DB
:100BF0003840C3F11E0385FB0001C3F1200E01FA4A
:100C00000EFE20FA03F2203B42EA0E025CBF41FADC
:100C100003F31A43139BC8F81830169BC8F81C300E
:100C2000179BC8F82030189BC8F82430199BC8F8C7
:100C300028301A9BC8F82C301B9BC8F830301C9BFE
:100C4000C8F834300A9BC8F84C30149BC8F84430BC
:100C50000D9BC8F81020E01801A9C8F8147009F01D
:100C6000BDFC019AC8F85460C2F11E0284FB000169
:100C7000C2F1200320FA02F501FA03F3203A58BF2B
:100C800041FA02F245EA03051099D8F84C30C8F849
:100C900048100E980C99C8F8681058BF154303FB0C
:100CA00004FA15991B4A1C4B93FBFAF39B05C8F8F1
:100CB0006010C8F8503001A9C8F84020C8F83C506E
:100CC000301809F08BFC019BC3F11E0386FB000169
:100CD000C3F1200420FA03F201FA04F4203B42EAB3
:100CE00004025CBF41FA03F31A43D8F868100948BC
:100CF000C8F85820119A084BC8F8642001FB06F97F
:100D000093FBF9F39B05C8F86C30C8F85C0002B09F
:100D1000BDE8F0873333331380841E002DE9F041A2
:100D2000044694B000F1AC06D0F8FC5002AA30465C
:100D300009F07AFEE26CA36CD4F8781103FB02F39D
:100D4000994205F0800504F58E7700F3E480D4F82D
:100D50007C314FF000089A4240F3B6804FF0000C0F
:100D6000DDF808E003980499C4F81CE16345C4F871
:100D70002001C4F82411C4F878C114DB9EFBF2FCF6
:100D800090FBF2FED4F8283191FBF2F2D4F8300156
:100D9000D4F82C11634471440244C4F82831C4F8D7
:100DA0002C11C4F8302102A9384608F067FCD4F8A9
:100DB0007821E36CA16C104401FB03F18142B8BFC0
:100DC000481C0028D4F87C11BCBFD14AC4F8782153
:100DD00091FBF3F203FB1212A8BFC4F87801002ABA
:100DE00014BF2A466A1CB1EB430FD4BF002502256D
:100DF0002A448B42B4BF04230023D51805F0050311
:100E0000052B00F0FF80680727D505F00303032BAF
:100E100000F0AB80290625D505F00703072B00F06D
:100E20008780EA0702D50023C4F87831D4F87C31F2
:100E30000133C4F87C31D4F8FC3005F0470503F0E9
:100E4000F8031D4315F0090FC4F8FC5002D02046EA
:100E500000F0A2FD14B0BDE8F08101232906C4F81A
:100E60008031D9D42E4605F00705D4F87C31013302
:100E7000C4F87C31730640F16B81D4F8742147F2D9
:100E80002F539A42D7DCD4F8A830092BD3DCD4F8FE
:100E9000BC1063699942CEDAD4F81831012B00F006
:100EA0004681D4F8F830009204F5C272019204F53C
:100EB000B47104F5A87204F5017000F0E5FC02239A
:100EC0003546C4F81831B6E700F08880D4F81C31F4
:100ED0000299E06BC91A09F03BFDD4F81C31D4F833
:100EE000202103991844891AC4F81C01E06B09F009
:100EF0002FFDD4F820310499D4F824211844C4F8E3
:100F00002001891AE06B09F023FDD4F8243118443C
:100F1000C4F8240147E7636CA16B00205B42C4F86E
:100F2000780193FBF1F34FF00108C4F87C3112E72C
:100F3000B8F1000F40F0E880D4F86031D4F86421B3
:100F4000D4F85C0173499342B8BF13468342B8BFDB
:100F500003468B4240F3E280C4F8741145F040062A
:100F600007250023C4F878317FE7D4F88031ABB18E
:100F7000D4F84421684BD4F84801D4F84C11C4F893
:100F800068210022C4F86C01C4F87011C4F85C3107
:100F9000C4F86031C4F86431C4F880210126236CA0
:100FA000009604F5AE7204F5B47104F5A27007F072
:100FB00089F9236C009604F5B07204F5B67104F556
:100FC000A47007F07FF9236C009604F5B27204F563
:100FD000B87104F5A67007F075F91BE7D4F82C2159
:100FE000D4F82831D4F83011C4F820210022C4F8F4
:100FF0001C31C4F82411C4F82821C4F82C21C4F8E9
:10100000302165E7D4F84011D4F8380109F09AFC92
:10101000D4F834110746D4F83C0109F093FCD4F815
:1010200040113F1AD4F83C010B9709F08BFCD4F81F
:1010300034110746D4F8380109F084FCD4F8401183
:10104000074408460C9709F07DFCD4F83411074694
:10105000084609F077FC04F58E710EC9384400F19A
:1010600040409B108F1092100D900EA911A8139361
:101070001197129209F05EFF0EA805AA0BA908F0BD
:10108000DDFF05A90EC9491052105B1005A8059196
:1010900004F59A710692079309F02CF80B9A0D9BB0
:1010A0000C9F089205A904F5A27230460A9309978D
:1010B00009F02EFD04F5A872304608A909F028FDB4
:1010C000216DD4F8440109F043FC4042C4F84401C6
:1010D000216DD4F8480109F03BFC4042C4F84801B6
:1010E000216DD4F84C0109F033FCD4F84421D4F834
:1010F00048314042000212021B02C4F84C01C4F8FD
:101100004421C4F848317EE62E461D4629E700BF3B
:10111000A19DEF3F4E6210004C62100040F6C312DA
:101120009342D8BF40F6C413C4F8743116E704F5EF
:10113000C2710023009204F50170C4F8183104F55F
:10114000A872019104F5B471354600F09DFB72E67A
:10115000354670E62DE9F04F8BB0DFF8BC82029285
:1011600004460D460393A1F1040A00F1740700F14F
:1011700080090DF11C0B23785AF8046FCBF800603E
:101180004146002B00F0F28057F8040B09F0E0FB19
:10119000B945A6EB00004BF8040BECD1D4F8C030F5
:1011A000002B40F0F380D4F8D010029B591A20692C
:1011B00009F0CEFBD4F8D020D4F8C43010441B1A68
:1011C000002BB8BF5B42B3F5967FC4F8D0000ADDB0
:1011D000D4F8EC20032A00F0F580B3F5167F02DD89
:1011E000022A00F0F680D4F8C8301B1A002BB8BFD2
:1011F0005B42B3F5967F0ADDD4F8F020032A00F0B5
:10120000EC80B3F5167F02DD022A00F0ED80D4F801
:10121000CC30181A0028B8BF4042B0F5967F00F3D2
:10122000C2806268784F7949079E089882FB07233D
:101230004FEAD23848EA434888FB0189099B4FEAC4
:10124000D83242EA494282FB066782FB000182FBF8
:1012500003234FEA967E920F860F4EEA870E42EAEC
:10126000830246EA810604A804F1AC01CDF810E03F
:101270000596069208F03EFF2F686548D5F804C031
:10128000DFF898E1A968634E3A180CEB0003002FD1
:10129000B8BF7F42724598BF734598BF012201EBEA
:1012A000000388BF00228CEAEC7073458CBF0023DA
:1012B00002F00103A0EBEC70B742CCBF0422002285
:1012C0000029B8BF49421343B042CCBF04220022D8
:1012D000B142CCBF0421002113430B435B0704D56B
:1012E0000023C4F87C31C4F8F031284608F0E8F94E
:1012F0006169D4F8FC20C4F8BC0002F07F02884287
:10130000B4BF8020002010430122A368C4F8FC0071
:1013100004F1A401009204F1BC0004F1A80206F05B
:10132000D1FF039BDFF8F0801E1F04F18C0504F150
:10133000980755F8040B414609F00AFBBD4246F8F0
:10134000040FF6D1D4F8F430D4F8F010D4F8EC202F
:101350008B42A8BF0B46032BA8BF03239342A8BF11
:101360001346149A13700BB0BDE8F08FB86941466C
:1013700009F0EEFA0437301A4F454BF8040B7FF4AE
:10138000FAAED4F8C030002B3FF40DAF029BC4F886
:10139000C4300021C4F8C830C4F8CC30C4F8D03010
:1013A000C4F8C01003E7D4F8F430032B20D0B0F514
:1013B000167F7FF736AF022B7FF433AF0123C4F8DB
:1013C000F4302EE70222B3F5167FC4F8EC207FF745
:1013D0000AAF0123C4F8EC3005E70222B3F5167F0B
:1013E000C4F8F0207FF713AF0123C4F8F0300EE704
:1013F0000223B0F5167FC4F8F4307FF712AF012353
:10140000C4F8F4300DE700BF4E6210006AF41D010D
:101410009999992999999939F55DD50132333353C1
:101420002DE9F043044695B000F1AC06D0F8FC502D
:101430009046304602AA09F0F7FAA16E636ED4F81E
:10144000EC2103FB01F39A4205F0800504F5C8770F
:1014500000F31281D4F8F0314FF00009994240F3C3
:10146000E5804FF0000EDDF808C00398049AC4F838
:1014700090C17345C4F89401C4F89821C4F8ECE114
:1014800014DB90FBF1FE9CFBF1FCD4F89C3192FB49
:10149000F1F1D4F8A401D4F8A021634472440144CA
:1014A000C4F89C31C4F8A021C4F8A41102A938469C
:1014B00008F0E4F8A36ED4F8EC11626E084402FB65
:1014C00003F28242B8BF501C0028BCBF9A4AC4F83D
:1014D000EC21D4F8F02192FBF3F103FB1121A8BF1A
:1014E000C4F8EC01002908BF0135B2EB430FD4BFAB
:1014F000002102210D449342B4BF042300231D4464
:1015000005F00503052B00F01D81690740F18A8075
:1015100005F00303032B00F0D6802A063DD505F025
:101520000703072B1FD0EB0702D50023C4F8EC31CB
:10153000D4F8F0310133C4F8F0310026D4F8FC308F
:10154000ED0003F0C70305F0380243EA0605154332
:1015500015F0090FC4F8FC5002D0204600F01CFA28
:1015600015B0BDE8F083B9F1000F13D1D4F8D43130
:10157000D4F8D821D4F8D00170499342B8BF1346AB
:101580008342B8BF03468B4240F35D81C4F8E81143
:1015900045F040050023C4F8EC31D4F8F03115F0E3
:1015A000400603F10103C4F8F031C7D0D4F8D831B4
:1015B000D4F8D401D4F8D02160498342B8BF03469F
:1015C0009342B8BF13469A108A4262DC40F6C313B6
:1015D0009A4200F3518140F6C412C4F8E821D4F8CD
:1015E000A830092B57DCD4F8BC106369994252DA51
:1015F000B8F1000F4FD0D4F81831022B00F02C8135
:10160000D4F8F830009204F5FC72019204F5EE7102
:1016100004F5E27204F5017000F036F90123C4F814
:1016200018318BE70123C4F8F43176E737D0D4F8CA
:1016300090310299A06DC91A09F08AF9D4F8903155
:10164000D4F8942103991844891AC4F89001A06D24
:1016500009F07EF9D4F894310499D4F8982118440B
:10166000C4F89401891AA06D09F072F9D4F8983180
:101670001844C4F8980119E7236E626D00205B429C
:10168000C4F8EC0193FBF2F34FF00109C4F8F03118
:10169000E4E6C4F8E81105F0070500264EE7D4F8A3
:1016A000A021D4F89C31D4F8A411C4F894210022CC
:1016B000C4F89031C4F89811C4F89C21C4F8A02152
:1016C000C4F8A421B5E7D4F8F431ABB1D4F8B8210B
:1016D0001B4BD4F8BC01D4F8C011C4F8DC210022A3
:1016E000C4F8E001C4F8E411C4F8D031C4F8D4312E
:1016F000C4F8D831C4F8F4210126E36D009604F54E
:10170000E87204F5EE7104F5DC7006F0DBFDE36DC4
:10171000009604F5EA7204F5F07104F5DE7006F047
:10172000D1FDE36D009604F5EC7204F5F27104F559
:10173000E07006F0C7FDF0E6A19DEF3F4E6210009D
:101740004C621000D4F8B411D4F8AC0109F0FAF8E6
:10175000D4F8A8110746D4F8B00109F0F3F8D4F88A
:10176000B4113F1AD4F8B0010B9709F0EBF8D4F894
:10177000A8110746D4F8AC0109F0E4F8D4F8B41184
:10178000074408460C9709F0DDF8D4F8A81107467D
:10179000084609F0D7F804F5C8710EC9384400F1BD
:1017A00040409B108F1092100D900EA911A813931A
:1017B0001197129209F0BEFB0EA805AA0BA908F01A
:1017C0003DFC05A90EC9491052105B1005A80591F2
:1017D00004F5D4710692079308F08CFC0BAA8CCA0E
:1017E00005A90892304604F5DC7209930A9709F0BE
:1017F0008FF904F5E272304608A909F089F9E16E23
:10180000D4F8B80109F0A4F84042C4F8B801E16E78
:10181000D4F8BC0109F09CF84042C4F8BC01E16E68
:10182000D4F8C00109F094F8D4F8B821D4F8BC3148
:101830004042000212021B02C4F8C001C4F8B821E1
:10184000C4F8BC3161E640F6C3129342D8BF40F6FB
:10185000C413C4F8E8319BE604F5FC710023009240
:1018600004F50170C4F8183104F5E272019104F531
:10187000EE7100F009F861E647F22F539A42C4F87E
:10188000E8213FF708AFAAE62DE9F04F89B000251F
:10189000129E0393DDF84C900795730004468A4628
:1018A000174600F1100B02930DF1100846F2666620
:1018B00097E8011057F82520BB680299019182FB37
:1018C00000014FEA613E82FB0C0182FB03235B13A4
:1018D0004A135242CEF100015B42049105920693F5
:1018E00058F8253003995AF82520009103F5004E49
:1018F00041465B4648F825E0204609F033FE49F8AA
:10190000040B2169A269636A606BB142A8BF3146CA
:10191000B242A8BF3246B342A8BF33460135B042F7
:10192000A8BF3046032D2161A26163626063BFD10D
:101930006569A76A206A266B05FB05F501FB015165
:10194000E56907FB071100FB00FE05FB0511E06AD6
:10195000C91302FB02E2002900FB00224FEAE23237
:10196000A16306FB06F6B8BF4FF6FF7103FB0363E6
:10197000B8BFA163002A4FEAE333E263BCBF4FF66E
:10198000FF72E263002B2364BCBF4FF6FF73236436
:1019900009B0BDE8F08F00BF2DE9F04F89B00023FA
:1019A000D0F8FC10DFF8C0A2DFF8C092DFF8C0B2B8
:1019B0000693054600F1740400F18008059307932F
:1019C00005AED4F8C831AA6993423EDAA06F002868
:1019D0003BD1002B12DD2A78D4F89031002A00F098
:1019E000938022685345A8BF53464B45ACBFD318DC
:1019F00002EB090300222360C4F890214B062CD48B
:101A00000434444506F10406DBD1D5F80031D5F89D
:101A10000441D5F8080104FB03F201F0BF0123449F
:101A200000FB02F2C5F8FC10034402B1013B5B105D
:101A3000012B00F08B80022B01D0002B66D00623F7
:101A4000C5F8F83009B0BDE8F08FB3EB620FD5DA16
:101A5000A26F002ABDDC4B06D2D50127EB680097A8
:101A600004F1600204F16C01204606F02BFCD5F86D
:101A7000A82044F61F639A423BDCD5F8BC30B3F192
:101A8000807F36DA2B6AD4F8C8219A42A8BF3B4639
:101A900032DAD4F88C30002BCABFD4F89830002347
:101AA0000133C4F898306B6A01279A4237603B468D
:101AB00032DAD4F860E0A96A8E455FDB012F2BDDB6
:101AC000E86A904230DC022F26DDB2EB600F04DAC8
:101AD000296B226EB2EB610F3EDBA26F974203DBF4
:101AE000D4F89820052A59DCC4F88C70D5F8FC107D
:101AF00086E7D4F8C82100233768002F00F09880CB
:101B0000696A9142DADDD4E7A36177E71823C5F863
:101B1000F83009B0BDE8F08FA26FBA42E4DC002FC4
:101B2000DEDC002BE0D0DBE7D4F860E0296B8E45EB
:101B3000C9DAD4F88C100229CABFD4F89810002151
:101B400001310327C4F898103760BEE70C23C5F8AD
:101B5000F83009B0BDE8F08FD4F88C20A16F032ACB
:101B6000C8BFD4F898204FF00407CCBF0132002240
:101B7000B942C4F898203760B4DDB5E7D4F88C10CA
:101B80000129CABFD4F8981000210131C4F8981077
:101B9000E86A022790423760C8DC9EE7626AE06E1E
:101BA0000393801A0028B8BF4042594608F0D0FE7F
:101BB000D5F8D0E0226DE168A2EB0E02002AB8BF92
:101BC0005242844602EB4202D4F8C80111448142D9
:101BD00011DA039B13B30FBB002885DD6B6B9C45AB
:101BE00082DAE36EC4F850E0A3612B6A8342B8BF87
:101BF0000346E36011E0002810DD6B6B9C450DDAB5
:101C0000E36EC4F850E0A361002FEED0012F17D08F
:101C1000022F1BD0032F1FD0E060A767022F7FF792
:101C200063AFE368C31A0E331C2B98BFE0605BE719
:101C3000A26F002A3FF758AF002B3FF455AF4FE794
:101C40006B6A8342B8BF0346E360E6E7EB6A834210
:101C5000B8BF0346E360E0E7EB6A5B108342B8BFBE
:101C60000346E360D9E700BF0AD7A300F6285CFF6C
:101C7000F55DD501F8B5044601F018FE7822002183
:101C800004F18C00FEF723FB0B4B0C49A3660027E5
:101C9000062340264FF4A07503204FF42022E76668
:101CA000C4F88460C4F88850A067E167C4F8802055
:101CB00023676367F8BD00BF20A1070014AE47018A
:101CC00000234361704700BFF0B401249C40059F8E
:101CD000049E069D016042600799089AC461C7602E
:101CE00006620561836041618261F0BC704700BF9C
:101CF000002914DD30B48468056801FA04F4491041
:101D00000C440D440022A542426007DD63001946E1
:101D10008D4202F101022344F9DC426030BC70477D
:101D2000F8B50D6805620446486860628B68D4F8AF
:101D30008C10A36201399F124FEAA02E4FEAA52C06
:101D4000002962602761C4F80CE0C4F808C0C4F838
:101D50008C1009DBA66BE16B226CAD1B401A9B1A41
:101D6000E56220636363F8BD6669E16EC4F88C10B8
:101D7000022E3AD004F18C0004F1680136B12246FB
:101D800006F096FC256A606AA36AE3E70123C4F8BB
:101D90009860C4F8A460C4F8A860C4F8AC60C4F843
:101DA000B0C0C4F8B4E0C4F8B870C4F8BC60C4F8FB
:101DB000C060C4F8C460C4F8C860C4F8CC60C4F89B
:101DC000D460C4F8D860C4F8DC60C4F8E060C4F83B
:101DD000E460C4F8EC60C4F8F060C4F8F460C4F8DF
:101DE000F860C4F8FC606361C9E7D4F89010D4F8D7
:101DF00080708A1A002AB8BF5242BA4202DC03221B
:101E00006264A7E7002266646261A3E780B589B0D7
:101E100013468C468646079006910592079890F8DF
:101E20005C008DF81300BDF8180010F4C07F029319
:101E3000CDF804C0CDF800E001D0FFE7FFE79DF842
:101E40001300012806D0FFE79DF81300022840F098
:101E5000E380FFE707980068806D03909DF8180005
:101E60004007002806D0FFE79DF80C00C0070028B7
:101E700048D0FFE79DF8180010F0380F06D0FFE7B4
:101E80009DF80C00800700283CD5FFE7BDF818003E
:101E900010F4E07F06D0FFE79DF80C004007002813
:101EA00030D5FFE79DF8190010F01E0F06D0FFE7B0
:101EB0009DF80C000007002824D5FFE79DF81900C5
:101EC00010F0E00F06D0FFE79DF80C00C0060028D8
:101ED00018D5FFE79DF81A008007002806D0FFE715
:101EE0009DF80C00800600280CD5FFE79DF81A002D
:101EF00010F0FC0F0DD0FFE79DF80C004006002805
:101F000007D4FFE707980068C16D41F00101C16582
:101F1000FFE79DF818004007002806D0FFE79DF86E
:101F20000C00C007002848D1FFE79DF8180010F00A
:101F3000380F06D0FFE79DF80C00800700283CD43E
:101F4000FFE7BDF8180010F4E07F06D0FFE79DF82A
:101F50000C004007002830D4FFE79DF8190010F06E
:101F60001E0F06D0FFE79DF80C000007002824D4C0
:101F7000FFE79DF8190010F0E00F06D0FFE79DF88D
:101F80000C00C006002818D4FFE79DF81A0080074F
:101F9000002806D0FFE79DF80C00800600280CD42E
:101FA000FFE79DF81A0010F0FC0F0DD0FFE79DF839
:101FB0000C004006002807D5FFE707980068C16DB0
:101FC00041F00201C165FFE79DF8180000060028F6
:101FD00009D5FFE7059807990968D1F8DC20104377
:101FE000C1F8DC00FFE79DF81900C007002809D000
:101FF000FFE7059807990968D1F8E0201043C1F878
:10200000E000FFE70698079909684A6D10434865A4
:1020100000208DF8230008E00798016E41F00201CE
:10202000016601208DF82300FFE79DF8230009B029
:1020300080BD000082B001460190009102B070475F
:1020400084B00A460346039002910192009304B0C3
:1020500070470000B0B58EB09C4696460C460546CB
:102060000C900B910A920993002005900C9890F81F
:102070005C008DF813009DF813000228CDF80CC009
:10208000CDF808E00194009540F0FD80FFE70B9843
:1020900040283FD1FFE70C980068D0F8900010F07E
:1020A0000F0F09D1FFE70C98016E41F480710166B2
:1020B00001208DF83700EFE00C980068D0F8900010
:1020C00000F080700121B1EB106F0FD1FFE70C9889
:1020D0000068D0F8800000F400700121B1EB502FAF
:1020E00003D1FFE701200590FFE7FFE70C980068A8
:1020F000D0F8900000F44070059901EB1020059095
:102100000C98806C059901EBC10100EBC1000890AF
:10211000FFE73EE00C980068D0F8980010F00F0F31
:1021200009D1FFE70C98016E41F48071016601202E
:102130008DF83700B0E00C980068D0F8980000F0F7
:1021400080700121B1EB106F0FD1FFE70C98006890
:10215000D0F8800000F480700121B1EB102F03D182
:10216000FFE701200590FFE7FFE70C980068D0F833
:10217000980000F44070059901EB102005900C9830
:10218000C06C059901EBC10100EBC1000890FFE7AD
:10219000FFE70898006800F080400A9948600A98B4
:1021A0004068002807D1FFE708980068C0F38A401C
:1021B0000A99086006E00898006820F060400A99D3
:1021C0000860FFE70898006800F000500A998860EE
:1021D0000898006800F000400A99086108980430E7
:1021E0000890089800880A99C86108980068C0F3A8
:1021F00003400A99C8600898006800F480100A99A2
:1022000048610898006800F400100A9988610898ED
:102210000068C0F306600A99086208980068C00F59
:102220000A9948620898043008900898079000209E
:102230000690FFE706980A99C9684CF20E52C0F65C
:102240000002515C88420AD2FFE707980699405C79
:10225000099A5054FFE7069801300690EAE70B9878
:10226000402806D1FFE705980C990968C1F8940049
:1022700005E005980C990968C1F89C00FFE700206B
:102280008DF8370008E00C98016E41F008010166F6
:1022900001208DF83700FFE79DF837000EB0B0BD84
:1022A00082B001460190009102B0704780B58CB0B9
:1022B00001460B900B980068006D00F4E0500A9006
:1022C0000B980068406D0A9A10400A900B980068BD
:1022D000006D00F0070009900B980068406D099AA6
:1022E000104009900B980068006D00F038000890CD
:1022F0000B980068406D089A104008900B98006891
:10230000006D00F4710007900B980068406D079A0B
:10231000104007900B980068006D00F46020069054
:102320000B980068406D069A104006900B98006864
:10233000406D03900B980068006D02909DF80800B6
:1023400000F040000022B2EB901F019112D0FFE795
:102350009DF80C0000F040000021B1EB901F08D068
:10236000FFE70B980068402101650B98FFF798FF85
:10237000FFE7FFE79DF80900C00700281DD0FFE731
:102380009DF80D00C007002816D0FFE70B980068E5
:10239000D0F8D80004900B980068D0F8E0000499B9
:1023A000084004900B9800684FF4807101650B9809
:1023B000049900F00DFBFFE7FFE70A98002809D019
:1023C000FFE70A980B99096808650B980A9900F0CD
:1023D00013FBFFE70998002809D0FFE709980B993C
:1023E000096808650B98099900F090FAFFE70898CA
:1023F000002809D0FFE708980B99096808650B9831
:10240000089900F0A7FAFFE79DF8090000F0020024
:102410000021B1EB500F13D0FFE79DF80D0000F045
:1024200002000021B1EB500F09D0FFE70B980068C4
:102430004FF4007101650B9800F0E8FAFFE7FFE741
:102440009DF808000021B1EBD01F1DD0FFE79DF8DB
:102450000C000021B1EBD01F15D0FFE70B980068EE
:10246000D0F8D40005900B980068D0F8DC000599EE
:10247000084005900B980068802101650B9805992C
:1024800000F0B0FAFFE7FFE79DF8090000F0200038
:102490000021B1EB501F13D0FFE79DF80D0000F0B5
:1024A00020000021B1EB501F09D0FFE70B98006816
:1024B0004FF4005101650B9800F084FAFFE7FFE745
:1024C0009DF809000021B1EBD01F11D0FFE79DF866
:1024D0000D000021B1EBD01F09D0FFE70B98006879
:1024E0004FF4004101650B9800F066FAFFE7FFE743
:1024F0009DF8090000F040000021B1EB901F15D0BD
:10250000FFE79DF80D0000F040000021B1EB901FA7
:102510000BD0FFE70B9800684FF4804101650B98E2
:10252000016E41F080010166FFE7FFE70698002891
:1025300009D0FFE706980B99096808650B9806997A
:10254000FFF77EFDFFE7079800280AD0FFE707980E
:102550000B990968086507980B990A6E104308667D
:10256000FFE70B98006E002804D0FFE70B98FFF7F9
:1025700061FDFFE70CB080BD80B584B001460290DC
:1025800002980028009104D1FFE701208DF80F0088
:102590005FE10298006846F20041C4F200018842FF
:1025A00001D1FFE7FFE702988068B0F5407F01D1D5
:1025B000FFE7FFE7029890F85C00002808D1FFE7EA
:1025C0000298002180F85D10029800F047F9FFE7BB
:1025D00002980068816921F01001816100F0DEFB42
:1025E0000190FFE702980068806910F0080F17D08B
:1025F000FFE700F0D3FBDDF804E0A0EB0E000B28B2
:102600000DD3FFE70298016E41F0010101660298C7
:10261000032180F85C1001208DF80F0019E1E1E73B
:1026200002980068816941F00101816100F0B6FB08
:102630000190FFE702980068806910F0010F17D140
:10264000FFE700F0ABFBDDF804E0A0EB0E000B2889
:102650000DD3FFE70298016E41F001010166029877
:10266000032180F85C1001208DF80F00F1E0E1E714
:1026700002980068816941F0020181610298006856
:1026800046F20041C4F20001884208D1FFE70298F7
:10269000406846F20051C4F200010860FFE702986A
:1026A000007C012807D1FFE702980068816921F0CA
:1026B0004001816106E002980068816941F04001B3
:1026C0008161FFE70298407C012807D1FFE702986B
:1026D0000068816941F48041816106E002980068E8
:1026E000816921F480418161FFE70298807C0128A3
:1026F00007D1FFE702980068816921F48051816168
:1027000006E002980068816941F480518161FFE729
:1027100002980068806920F4407002990A6889680C
:102720000843906102980068816921F0A4018161E9
:1027300002980068016921F0100101610298C068E7
:10274000012807D1FFE702980068816941F0040180
:1027500081612CE00298C068002826D0FFE702982B
:10276000C068022819D0FFE702980068816941F02B
:102770008001816102980068016941F010010161E6
:102780000298C068032807D1FFE7029800688169B2
:1027900041F020018161FFE706E00298006881694D
:1027A00041F020018161FFE700E0FFE7FFE70298C9
:1027B000016842698369D0F81CC04FF07E4E0EEB71
:1027C00043636FF0FF0E0EEB0C2C43EA0C03006A20
:1027D000013818430023CFF6FF7303EB0242104386
:1027E000C86102988068B0F5407F1BD1FFE702986E
:1027F0000168426A836AD0F82CC0013B6FF0FF0E7B
:102800000EEB0C2C43EA0C03006B6FF00F0C0CEB7F
:10281000001018430023CFF6FF7303EB024210436E
:10282000C860FFE702980168C06BD1F8C020104370
:10283000C1F8C0000298FDF7FDFF029800218165F4
:10284000029801660298012280F85C208DF80F1032
:10285000FFE79DF80F0004B080BD000080B58EB08A
:1028600001460D9000200C900B900A900990089062
:102870000D98006846F20042C4F2000290420591B1
:1028800041D1FFE74FF0007001F016FDFFE741F284
:102890005800C4F20200016841F000710160006854
:1028A00000F00070079007980490FFE7FFE741F2FF
:1028B0004C00C4F20200016841F0010101600068AF
:1028C00000F00100069006980390FFE74FF4C05017
:1028D00008900220099000210A910B9109220C9284
:1028E0004FF0904208AB029010460191194600F05B
:1028F00093F8152000900299019A00F0E9FA0098E7
:1029000000F0DAFAFFE70EB080BD000080B586B0B7
:102910000A46034605900491059840F23801C2F238
:10292000000140F2740CC2F2000C4FF0400E039113
:102930007146DDF80CE00292724601936346FFF7A0
:1029400089FB002803D0FFE7FDF764FFFFE706B02F
:1029500080BD000084B00A460346039002910192B4
:10296000009304B07047000083B0014601900198C5
:1029700090F85C000128009110D1FFE70198022136
:1029800080F85C1001980068816921F00101816183
:102990000198002101668DF80B1008E00198016E86
:1029A00041F00401016601208DF80B00FFE79DF85E
:1029B0000B0003B07047000082B001460190009107
:1029C00002B0704782B001460190009102B070479A
:1029D00084B00A460346039002910192009304B02A
:1029E0007047000084B00A460346039002910192AA
:1029F000009304B07047000084B00A460346039079
:102A000002910192009304B07047000082B0014629
:102A10000190009102B070478EB00A4603460D90B7
:102A20000C9100200B9007920693FFE70C9800682A
:102A30000B99C840002800F0AE81FFE70C980068B1
:102A40000B99012202FA01F108400A900A98002825
:102A500000F09D81FFE70C98406800F0030001281A
:102A600007D0FFE70C98406800F0030002282FD140
:102A7000FFE70D98806809900B984000032101FA48
:102A800000F0099921EA000009900C98C0680B99A0
:102A90004900884009990843099009980D99886070
:102AA0000D98406809900B98012101FA00F00999EE
:102AB00021EA000009900C984068C0F300100B99BF
:102AC000884009990843099009980D994860FFE7E3
:102AD0000C98406800F00300032818D0FFE70D9819
:102AE000C06809900B984000032101FA00F0099991
:102AF00021EA000009900C9880680B9949008840F1
:102B000009990843099009980D99C860FFE70C9846
:102B1000406800F00300022828D1FFE70D980B99C8
:102B20004FF6FC72C7F6FF7202EA51010844006AD0
:102B300009900B9800F0070080000F2101FA00F0C7
:102B4000099921EA000009900C9800690B9901F09D
:102B500007018900884009990843099009980D994F
:102B60000B9B02EA530211440862FFE70D980068CC
:102B700009900B984000032101FA00F0099921EA1D
:102B8000000009900C98406800F003000B99490080
:102B9000884009990843099009980D9908600C9894
:102BA00080798007002800F0F180FFE7FFE741F21D
:102BB0006000C4F20200016841F001010160006898
:102BC00000F00100089008980590FFE70B9820F0AE
:102BD00003000821C4F20101405809900B9800F04D
:102BE000030080000F2101FA00F0099921EA00009A
:102BF00009900D98B0F1904F03D1FFE700200490A9
:102C000042E00D9840F20041C4F60001884203D131
:102C1000FFE70120039034E00D9840F60001C4F670
:102C20000001884203D1FFE70220029026E00D98C0
:102C300040F60041C4F60001884203D1FFE70320BB
:102C4000019018E00D9841F20001C4F6000188429D
:102C500003D1FFE7042000900AE00D9841F2004103
:102C6000C4F600010622884208BF05220092FFE751
:102C700000980190FFE701980290FFE70298039007
:102C8000FFE703980490FFE704980B9901F0030114
:102C90008900884009990843099009980B9921F007
:102CA00003010822C4F20102885040F20840C4F235
:102CB0000100006809900A98099921EA000009902A
:102CC0000C988079C006002805D5FFE70A98099975
:102CD00008430990FFE7099840F20841C4F2010156
:102CE000086040F20C40C4F20100006809900A98A4
:102CF000099921EA000009900C9880798006002843
:102D000005D5FFE70A98099908430990FFE7099854
:102D100040F20C41C4F20101086040F20440C4F2E8
:102D20000100006809900A98099921EA00000990B9
:102D30000C9880798007002805D5FFE70A98099943
:102D400008430990FFE7099840F20441C4F20101E9
:102D5000086040F20040C4F20100006809900A983F
:102D6000099921EA000009900C988079C007002891
:102D700005D0FFE70A98099908430990FFE70998E9
:102D800040F20041C4F201010860FFE7FFE70B9841
:102D900001300B904AE60EB07047000040F2304020
:102DA000C2F200000068704780B582B000208DF844
:102DB0000700032000F0AEF80F2000F00FF8002805
:102DC00004D0FFE701208DF8070002E000F04EF884
:102DD000FFE79DF8070002B080BD000080B584B019
:102DE0000146039000208DF80B0040F23000C2F243
:102DF000000000680028019130D0FFE740F2040095
:102E0000C2F20000006840F23001C2F2000109681D
:102E10004FF47A72B2FBF1F1B0FBF1F000F040F93F
:102E2000002816D1FFE703980F280DD8FFE7039974
:102E30004FF0FF30002200F04BF8039840F23401CD
:102E4000C2F20001086003E001208DF80B00FFE7EB
:102E500003E001208DF80B00FFE703E001208DF86F
:102E60000B00FFE79DF80B0004B080BD80B584B077
:102E7000FFE741F26000C4F20200016841F0010185
:102E80000160006800F00100039003980190FFE7E3
:102E9000FFE741F25800C4F20200016841F080519E
:102EA0000160006800F08050029002980090FFE7F7
:102EB00000F03AF804B080BD80B582B001468DF8CC
:102EC00007009DF90700009105F086F802B080BD6B
:102ED00080B58AB013468C4686468DF82700089147
:102EE00007920593CDF810C0CDF80CE005F098F8E6
:102EF000069006980899079A9DF92730029301F0E9
:102F0000BFFC029901900846019905F0B7F80AB094
:102F100080BD000080B582B001460190019800910B
:102F200005F0D2F802B080BD47F20800C4F20000FC
:102F3000016841F4804101607047000040F20400E4
:102F4000C2F200000068704780B5FFF7F7FF41F25A
:102F5000080EC4F2020EDEF800E0CEF3022E4CF2B0
:102F60000651C0F6000111F80E1001F01F01C84013
:102F700080BD000080B5FFF7E1FF41F2080EC4F20A
:102F8000020EDEF800E0CEF3C22E4CF20651C0F67F
:102F9000000111F80E1001F01F01C84080BD0000B3
:102FA00086B041F20800C4F20200006800F00C0094
:102FB000042806D1FFE742F20040C0F2F40001907D
:102FC0006AE041F20800C4F20200006800F00C0060
:102FD000082806D1FFE741F20020C0F27A000190F4
:102FE00059E041F20800C4F20200006800F00C0051
:102FF0000C284CD1FFE741F20C00C4F2020001683A
:1030000001F003010491006800F0F000012101EBE0
:103010001010029004980228009015D0FFE7009845
:10302000032812D1FFE7029841F20021C0F27A0191
:10303000B1FBF0F041F20C01C4F202010968C1F3E6
:1030400006214843059011E0FFE7029842F2004153
:10305000C0F2F401B1FBF0F041F20C01C4F2020144
:103060000968C1F3062148430590FFE741F20C00CF
:10307000C4F20200006800F0C060022101EB1060A1
:10308000039005980399B0FBF1F0019002E0002055
:103090000190FFE7FFE7FFE7019806B070470000E7
:1030A00080B582B0014601900198009103F090FD37
:1030B00002B080BD84B0014602900091FFE7029803
:1030C00090F88400012804D1FFE702208DF80F005A
:1030D0002CE00298012180F88410FFE7FFE70298B6
:1030E0002421C0F8881002980068006801900298B6
:1030F0000068016821F001010160019820F0005092
:1031000001900298002141660198029909680860BF
:1031100002982021C0F88810FFE70298002180F86B
:103120008410FFE700208DF80F00FFE79DF80F00E7
:1031300004B0704780B586B00A46034604900391F8
:1031400001920093FFE7049890F88400012804D1CD
:10315000FFE702208DF8170032E00498012180F883
:103160008410FFE7FFE704982421C0F88810049832
:1031700000680068029004980068016821F001016D
:10318000016004980068806820F06060039908433B
:10319000049909688860049804F0C2F902980499B7
:1031A0000968086004982021C0F88810FFE7049897
:1031B000002180F88410FFE700208DF81700FFE75A
:1031C0009DF8170006B080BD80B586B00A4603465C
:1031D0000490039101920093FFE7049890F8840013
:1031E000012804D1FFE702208DF8170032E004988F
:1031F000012180F88410FFE7FFE704982421C0F83C
:1032000088100498006800680290049800680168BB
:1032100021F00101016004980068806820F060409E
:1032200003990843049909688860049804F078F9C0
:10323000029804990968086004982021C0F8881051
:10324000FFE70498002180F88410FFE700208DF844
:103250001700FFE79DF8170006B080BD80B584B069
:103260000146029002980028019104D1FFE7012055
:103270008DF80F0049E002988069002801D0FFE72F
:1032800000E0FFE70298D0F88800002808D1FFE7A7
:103290000298002180F88410029800F03BF8FFE7C4
:1032A00002982421C0F8881002980068016821F073
:1032B000010101600298806A002804D0FFE70298AB
:1032C00004F076F9FFE7029804F00CFB012804D122
:1032D000FFE701208DF80F0017E0029800684168B1
:1032E00021F49041416002980068816821F02A0130
:1032F000816002980068016841F001010160029854
:1033000004F0F6F98DF80F00FFE79DF80F0004B008
:1033100080BD000080B58CB001460B9000200A9063
:1033200009900890079006900B98006843F60002F9
:10333000C4F201029042039134D1FFE74FF44030D0
:1033400000F0DAFFFFE741F26000C4F2020001681A
:1033500041F480410160006800F4804005900598C8
:103360000290FFE7FFE741F24C00C4F2020001685F
:1033700041F001010160006800F001000490049830
:103380000190FFE74FF4C0600690022007900020F4
:103390000890099007200A904FF0904006A9FFF787
:1033A0003BFBFFE70CB080BDB0B58EB09C469646A7
:1033B0000C4605460C900B91ADF82A2009930C9809
:1033C000D0F888002028CDF814C0CDF810E0039480
:1033D000029540F08E80FFE70B98002805D0FFE7AC
:1033E000BDF82A00002804D1FFE701208DF837003E
:1033F00083E00C980021C0F890100C982121C0F8AF
:103400008810FFF7CBFC0690BDF82A000C99A1F8B4
:103410005400BDF82A000C99A1F856000C98806859
:10342000B0F5805F0AD1FFE70C980069002805D14C
:10343000FFE7002008900B98079004E00B98089095
:1034400000200790FFE7FFE70C98B0F8560000282F
:1034500033D0FFE70C98069B09996A4611608021DA
:10346000002204F005FD002808D0FFE70C98202179
:10347000C0F8881003208DF837003EE00898002837
:103480000BD1FFE7079800886FF35F200C9909685C
:10349000886207980230079008E0089800780C9935
:1034A00009688862089801300890FFE70C98B0F826
:1034B00056100139A0F85610C6E70C98069B0999DA
:1034C0006A4611604021002204F0D2FC002808D096
:1034D000FFE70C982021C0F8881003208DF83700F2
:1034E0000BE00C982021C0F8881000208DF83700E0
:1034F00003E002208DF83700FFE79DF837000EB09B
:10350000B0BD0000FFE7FEE780B5A2B040F25C204E
:10351000C2F20000012101704FF4805000F06CFBFA
:1035200000F0BAF900202190FFE72198632805DC1C
:10353000FFE7FFE7219801302190F6E743F2000012
:10354000C4F20100F521169000F0B0FF002016999A
:1035500015900846159900F0A9FF15982090FFE7EF
:103560002098632805DCFFE7FFE7209801302090D2
:10357000F6E700F087F94FF0000ECDF87CE0FFE7AA
:103580001F98632805DCFFE7FFE71F9801301F90B5
:10359000F6E7FFE740F25410C2F20000007800287E
:1035A0003DD0FFE740F21410C2F2000040784728F7
:1035B00001D1FFE762E040F25410C2F200000021A6
:1035C0000170149100F068F914981E90FFE71E989E
:1035D000632805DCFFE7FFE71E9801301E90F6E741
:1035E00043F20000C4F20100F521139000F05EFFE9
:1035F0000020139912900846129900F057FF129874
:103600001D90FFE71D98632805DCFFE7FFE71D9885
:1036100001301D90F6E700F035F9FFE72DE000F0EE
:103620003BF94FF0000ECDF870E0FFE71C986328DF
:1036300005DCFFE7FFE71C9801301C90F6E743F23A
:103640000000C4F20100F521119000F02FFF0020CE
:10365000119910900846109900F028FF10981B90BF
:10366000FFE71B98632805DCFFE7FFE71B980130A5
:103670001B90F6E700F006F9FFE78BE740F25410E5
:10368000C2F200000021017076200F9105F068F968
:103690004E210E9008460F9905F062F90F991A9184
:1036A0000D90FFE71A9842F20F71884205DCFFE7A0
:1036B000FFE71A9801301A90F4E71620402105F030
:1036C0004FF960214FF0000E0C9008467146CDF87E
:1036D0002CE005F045F961214FF0020E0A900846F2
:1036E000714605F03DF95F214FF0100E0990084634
:1036F000714605F035F97621089008460B9905F0DA
:103700002FF950214FF0060E07900846714605F03C
:1037100027F94F214FF0260E06900846714605F016
:103720001FF94C21059008460B9905F019F90B99E2
:1037300019910490FFE7199842F20F71884205DC55
:10374000FFE7FFE7199801301990F4E74E200F21A9
:1037500005F006F9002118910390FFE7189842F24E
:103760000F71884205DCFFE7FFE7189801301890D9
:10377000F4E740F21040C2F200004BF21D11C0F617
:10378000000101604BF29571C0F6000141604BF2FF
:103790006D71C0F60001816040F2B401C2F2000117
:1037A0000122029008460191114605F0F5FF40F212
:1037B0005C21C2F2000108701020019A10614FF4E0
:1037C000FA60506142F2666010624FF47A705062A3
:1037D0004FF47A609061D0614FF4C81EC2F82CE0BB
:1037E0004AF6E73EC0F27B0EC2F828E0506340F292
:1037F0006400C2F20000106040F25810C2F20000F3
:10380000506000201073507348F2A060C0F20100B5
:1038100090630A20D06402980091114606F004F8E3
:1038200000990870FFE740F25C20C2F200000078C7
:1038300000281ED0FFE740F21040C2F2000040F224
:10384000B401C2F2000105F0EFFF40F25C21C2F2C8
:103850000001087000201790FFE7179842F20F71DF
:10386000884205DCFFE7FFE7179801301790F4E77F
:10387000D9E740F25410C2F200000021017022B0DA
:1038800080BD000080B540F60000C4F600001021A5
:1038900000F044FB80BD000080B540F60000C4F697
:1038A0000000102100F088FA80BD000008B56822F1
:1038B0000021FCF70CFD08BD10B550220446002184
:1038C000FCF705FD4FF08043054AA3600720002167
:1038D00020602171E362E363A361A262E26410BD30
:1038E00054FB2119F0B591F8302087B000230D4624
:1038F000044601930093029303930493059312B13A
:103900000323C0F8883A012384F88C3A04F5417007
:10391000FEF7B0F904F1640002F010F96B6804F6E8
:10392000283200200021C2E900010BB31E683D4986
:1039300086FB0167B20F42EA87020092186802EB29
:10394000C00200925E6886FB0167B20F42EA8702FE
:103950000192586802EBC0020192986880FB010155
:10396000820F42EA810202929B6802EBC30202923A
:1039700095F90D20531EDBB2022B51D90026324699
:10398000694604F60800FDF709F89DE807000023E2
:10399000C4F8543AC4F8583AC4F85C3AC4F83C0342
:1039A000C4F84013C4F844232A68C4F84863C4F830
:1039B000603A42B113685B02039353685B0204935D
:1039C00093685B02059304F5816703A93846AA69E9
:1039D00001F0B4F804F5C166384695F90C2004F2FC
:1039E0005C5101F0DDF830466A6AA96801F0A6F87A
:1039F00095F90E20304604F25C7101F0D1F895F88B
:103A0000301004F52D7002F0D7F904F5296000F0AC
:103A100079FF2046294600F007F8002007B0F0BDE6
:103A20001646ADE75EBA490C2DE9F041054694B063
:103A30000C464FF0010860220430FCF71EFC85F8AC
:103A40000080236CA16BE06B614F624A029305F525
:103A50005B7608230193009004923046002203977E
:103A6000FEF732F93046E169FEF742F9616A05F284
:103A70005C7001F01BF9A16905F25C5001F0C6F819
:103A8000A369D4F824E0E269DFF85CC1C5F8783AAC
:103A900023FA08F62EFA08F006F5C33600F5C3300F
:103AA000CDF804E0A036A030B6FBF3F6B0FBFEF094
:103AB0000096C5F880EA4FF47A7EC5F8742AC5F8F6
:103AC0007C6ACDF810C0CDF80CC0C5F8840A4FF060
:103AD000400C1297CDF840E04FF4FA674FF47A6E3D
:103AE000414605F608064FF00F08CDF83CC00E978A
:103AF0004FF4004C384FCDF834E0DFF8F0E002909E
:103B0000CDF844803046CDF830C00B97DFF8E0C0E8
:103B10000697CDF828E0314FDFF8D8E0CDF820C087
:103B200042F21078CDF81CE00597CDF8248005F519
:103B30001277FDF739F83046FCF7CEFE3846636C55
:103B4000E169274A02F0B0F8E26DA36CA169266D25
:103B500002924FF46C72019238460096214A02F0AC
:103B600075F894F83030022B2ED0012B40F28A22C7
:103B700018BF4FF0FF32E36C616AA66D0792022214
:103B8000DFF85CE008920292384641F288324FF04A
:103B9000FF37CDF818E005970492626D4FF4617716
:103BA00005F6EC258DE8440003970E4A02F0B6F8BE
:103BB0002846E16900F0FCFE626B2846012114B042
:103BC000BDE8F04100F0E4BE41F66412D3E700BF67
:103BD00085EB5100852B190040420F0000E1F505EF
:103BE0004E62100066666600301B0F00C027090099
:103BF000E3046C0060E3160084B001460390039870
:103C000041F24802C4F202021368184310601068BF
:103C1000039A1040029002980191009004B07047FE
:103C200084B001460390039841F24C02C4F20202B0
:103C30001368184310601068039A104002900298AD
:103C40000191009004B0704784B00146039003983E
:103C500041F24C02C4F2020213681843106010686B
:103C6000039A1040029002980191009004B07047AE
:103C700084B001460390039841F26002C4F202024C
:103C80001368184310601068039A1040029002985D
:103C90000191009004B0704742F20000C4F20200AB
:103CA000006800F00F00704782B00146019042F2B8
:103CB0000000C4F20200026822F00F02019B1A43C6
:103CC0000260009102B0704780B58AB00A46034690
:103CD000079006910698006890FAA0F0089008985E
:103CE00000280392029304D1FFE720208DF82700DB
:103CF00005E00898B0FA80F08DF82700FFE79DF8FE
:103D000027000590FFE7069800680599C84000283D
:103D10004FD0FFE7069800680599012202FA01F1E9
:103D200008400490049800283FD0FFE706984068B8
:103D3000012805D0FFE706984068022810D1FFE768
:103D400007980499069A926800F0A4F907980699D2
:103D50000A68C96801911146019A00F037F9FFE736
:103D600007980499069A126900F048F90698406885
:103D7000022813D1FFE70498FF2807D8FFE7079828
:103D80000499069A526900F02FF806E00798049902
:103D9000069A526900F074F8FFE7FFE70798049964
:103DA000069A526800F0C6F8FFE7059801300590C2
:103DB000A9E700200AB080BD84B00A4603460390FC
:103DC00002910298039988620192009304B07047AF
:103DD00084B00A46034603900291029803998862D0
:103DE0000192009304B0704780B58DB013468C46A5
:103DF00086460890079106920898006A079991FAFA
:103E0000A1F10991099900290593CDF810C0CDF8C9
:103E10000CE0029004D1FFE720208DF82B0005E094
:103E20000998B0FA80F08DF82B00FFE79DF82B0081
:103E300080000F2101FA00F0029921EA0000069AA1
:103E4000079B93FAA3F30B930B9B002B019000921B
:103E500004D1FFE720208DF8330005E00B98B0FA7D
:103E600080F08DF83300FFE79DF833008000009963
:103E700001FA00F0019A1043089B18620DB080BD52
:103E800080B58DB013468C46864608900791069201
:103E90000898406A0799090A91FAA1F109910999CC
:103EA00000290593CDF810C0CDF80CE0029004D1A4
:103EB000FFE720208DF82B0005E00998B0FA80F08C
:103EC0008DF82B00FFE79DF82B0080000F2101FAF1
:103ED00000F0029921EA0000069A079B1B0A93FA58
:103EE000A3F30B930B9B002B0190009204D1FFE7EF
:103EF00020208DF8330005E00B98B0FA80F08DF8A3
:103F00003300FFE79DF833008000009901FA00F0CC
:103F1000019A1043089B58620DB080BD84B00A46D8
:103F200003460390029102980399886101920093DD
:103F300004B0704780B58DB013468C468646089015
:103F40000791069208980068079991FAA1F10991E2
:103F5000099900290593CDF810C0CDF80CE0029026
:103F600004D1FFE720208DF82B0005E00998B0FA76
:103F700080F08DF82B00FFE79DF82B004000032117
:103F800001FA00F0029921EA0000069A079B93FAD1
:103F9000A3F30B930B9B002B0190009204D1FFE73E
:103FA00020208DF8330005E00B98B0FA80F08DF8F2
:103FB0003300FFE79DF833004000009901FA00F05C
:103FC000019A1043089B18600DB080BD80B586B083
:103FD00013468C46864605900491039205984068E6
:103FE00004998843039A5143084305994860029312
:103FF000CDF804C0CDF800E006B080BD80B58DB02E
:1040000013468C4686460890079106920898C06829
:10401000079991FAA1F10991099900290593CDF821
:1040200010C0CDF80CE0029004D1FFE720208DF8FD
:104030002B0005E00998B0FA80F08DF82B00FFE71F
:104040009DF82B004000032101FA00F0029921EABB
:104050000000069A079B93FAA3F30B930B9B002B8C
:104060000190009204D1FFE720208DF8330005E095
:104070000B98B0FA80F08DF83300FFE79DF833001D
:104080004000009901FA00F0019A1043089BD860A3
:104090000DB080BD80B58DB013468C468646089025
:1040A0000791069208988068079991FAA1F1099101
:1040B000099900290593CDF810C0CDF80CE00290C5
:1040C00004D1FFE720208DF82B0005E00998B0FA15
:1040D00080F08DF82B00FFE79DF82B0040000321B6
:1040E00001FA00F0029921EA0000069A079B93FA70
:1040F000A3F30B930B9B002B0190009204D1FFE7DD
:1041000020208DF8330005E00B98B0FA80F08DF890
:104110003300FFE79DF833004000009901FA00F0FA
:10412000019A1043089B98600DB080BD85B00A4687
:104130000346049003910498406902900298039901
:1041400000EA010C21EA000040EA0C400499886171
:104150000192009305B0704747F28000C4F200005E
:10416000016821F4807101607047000041F208008D
:10417000C4F20200006800F00C00704741F2000039
:10418000C4F20200016841F4803101607047000010
:1041900041F20000C4F20200016841F48021016094
:1041A0007047000041F20000C4F202000068C0F352
:1041B00040407047B0B588B09C4696460C460546D0
:1041C000079006910592049341F20C00C4F202009C
:1041D000016848F20C02CFF6FF121140079A069BC5
:1041E0001A43059B42EA0322049B1A4311430160D0
:1041F000CDF80CC0CDF808E00194009508B0B0BD32
:1042000041F20000C4F20200016841F080710160D7
:104210007047000041F20C00C4F20200016841F056
:10422000807101607047000041F20000C4F202009A
:104230000068C0F34060704782B00146019041F2CF
:104240000800C4F20200026822F0F002019B1A4347
:104250000260009102B0704782B00146019041F2C5
:104260000800C4F20200026822F4E062019B1A43D3
:104270000260009102B0704782B00146019041F2A5
:104280000800C4F20200026822F46052019B1A4343
:104290000260009102B0704782B00146019041F285
:1042A0008800C4F20200026822F04072019B1A43A7
:1042B0000260009102B0704782B00146019041F265
:1042C0008800C4F20200026822F04072019B1A4387
:1042D0000260009102B0704782B00146019041F245
:1042E0000800C4F20200026822F00302019B1A4394
:1042F0000260009102B0704782B00146019041F225
:104300008800C4F202000268019B22EA13429BB2B9
:104310001A430260009102B07047000082B001466B
:1043200001900198026842F040020260009102B0E0
:104330007047000082B0014601900198426842F047
:1043400040024260009102B07047000082B0014616
:1043500001900198426842F008024260009102B068
:104360007047000080B586B00A4603460590049168
:1043700001208DF80F0005980292019300F052F889
:10438000002845D1FFE7059800684FF6BF718843C4
:1043900004990A684B68D1F80CC0D1F810E01A43B0
:1043A00042EA0C0242EA0E024B691A438B691A4335
:1043B000CB691A43096A11430843059908600598B7
:1043C000406840F60471884304998A68C98A114399
:1043D000084305994860049880680021B1EBD02F0C
:1043E00006D1FFE705984FF4805100F03BF8FFE756
:1043F0000498006AB0F5005F06D1FFE705980499BC
:10440000496A00F021F8FFE700208DF80F00FFE770
:104410000598C16921F40061C1619DF80F0006B0E3
:1044200080BD000082B00146019001980068C0F391
:104430008010009102B0704782B00146019001984F
:10444000007B009102B0704784B00A460346039097
:104450000291BDF80800039908610192009304B02D
:104460007047000084B00A46034603900291039807
:10447000406820F4805002990843039948600192F3
:10448000009304B07047000084B00A4603460390CE
:1044900002910398406820F01000029908430399A4
:1044A00048600192009304B07047000084B00A464F
:1044B000034603908DF80B109DF80B0003990873C9
:1044C0000192009304B0704782B0014601900198B8
:1044D00040F20402C2F200021060009102B0704784
:1044E00080B540F26410C2F2000046F20041C4F20E
:1044F00000010160002141608160C16001220274FD
:1045000041748174112343614FF0040CC0F818C04A
:104510004FF0080EC0F81CE002624362C0F828C0E9
:10452000C0F82CE0026341638163C163FEF724F8A5
:10453000002803D0FFE7FCF76DF9FFE740F26410B5
:10454000C2F20000FEF710FA002803D0FFE7FCF7E4
:1045500061F9FFE740F26410C2F20000012100227D
:10456000FDF754FC002803D0FFE7FCF753F9FFE701
:1045700080BD000080B590B000200F900E900D908F
:104580000C900B900A90202109900846FFF748FBF9
:1045900001200890FFF744FB0420FFF741FB40F6A1
:1045A0000000C4F60000102107900691FFF710FCF0
:1045B00006980A9008990B91DDF824E0CDF830E0D8
:1045C000CDF834E0CDF838E00AAA079811460592F4
:1045D000FFF77AFB08210A9108990B91099A0C922E
:1045E0000D924FF0020ECDF838E04FF0904304905A
:1045F000184605990393CDF808E0FFF765FB069987
:104600000A91089A0B92099B0C930D93DDF808E030
:10461000CDF838E0DDF80CC0019060460599FFF751
:1046200053FB009010B080BD10B5A0B016A8282193
:104630000F90FBF74AFE00201590149013901290F3
:10464000119010904FF480510E900846FFF710FB28
:1046500001200D90FFF7F8FA20201090022111910F
:104660004FF0030ECDF848E00E9A139214920523F2
:1046700015934FF0904C10AC0C9060460B91214676
:104680000A94CDF824C0CDF820E00793FFF71CFB77
:10469000402110910B991191089A12920E9B13933D
:1046A0001493DDF81CC0CDF854C0DDF824E006906A
:1046B00070460A99FFF708FB802110910B99119120
:1046C000089A12920E9B13931493DDF81CC0CDF838
:1046D00054C0DDF824E0059070460A99FFF7F4FA1B
:1046E000049003F095FC0E990E9A00F089F82321AE
:1046F00003900846039A0291114603F099FC029830
:1047000003F04EFC0E9816904FF4827117914FF4FF
:10471000E06118910B9919910D9A1A924FF4007358
:104720001B930C9B1C931D901E904FF0070CCDF813
:104730007CC043F2000CC4F2010C60460F99CDF826
:1047400004C0FFF70FFE0199009008460E99FFF78D
:104750009BFE0198FFF7FAFD0198FFF7EBFD01982A
:10476000FFF7DCFD20B010BD80B540F2C810C2F2EA
:10477000000043F60001C4F2010101604FF4613111
:10478000416000218160C16001610C224261816150
:10479000C161016241628162FEF760FD002803D0C1
:1047A000FFE7FCF737F8FFE740F2C810C2F200005D
:1047B0000021FEF709FD002803D0FFE7FCF72AF8E7
:1047C000FFE740F2C810C2F200000021FEF7B2FC81
:1047D000002803D0FFE7FCF71DF8FFE740F2C81000
:1047E000C2F20000FEF766FC002803D0FFE7FCF7EA
:1047F00011F8FFE780BD0000FFE7FEE7FFE7FEE7F7
:1048000080B58BB013468C4686460A900991089273
:104810000A9800F0070007900798C0F107000528E4
:104820000493CDF80CC0CDF808E003D3FFE70420D3
:10483000019004E00798C0F107000190FFE701989C
:10484000069007980430062803D8FFE70020009060
:1048500003E0079803380090FFE700980590099857
:104860000699012202FA01F10139084005998840B0
:10487000089B02FA01F10139194008430BB080BDD1
:1048800080B58BB013468C4686460A9009910892F3
:104890000A9800F0070007900798C0F10700052864
:1048A0000493CDF80CC0CDF808E003D3FFE7042053
:1048B000019004E00798C0F107000190FFE701981C
:1048C000069007980430062803D8FFE700200090E0
:1048D00003E0079803380090FFE7009805900998D7
:1048E0000699012202FA01F1013908400599884030
:1048F000089B02FA01F10139194008430BB080BD51
:104900007047000030B51D4B036783B05C22002167
:104910000446FBF7DCFC1A49A16644F620624FF01E
:10492000804302206266206623602361084606F009
:104930000FF8144DE0664FF47A73E3652946284674
:1049400006F006F800EB80004000A06701A92846A9
:1049500005F044FE0C4B019D0C49C4F89000002268
:10496000C4F894506167C4F88C20E367C4F88030C1
:10497000C4F88430C4F8883003B030BDFA0A74112A
:1049800010BAA300685F10006EA301007A14AE3F56
:1049900040F2314303FB02F310B55B104160044663
:1049A0008260C3601946184605F0D2FF206110BD31
:1049B00030B540F2314404FB01F483B00546016098
:1049C0002146204605F0C4FF00EB80004000E8616E
:1049D00001A9204605F002FE019B6863AB6303B0AA
:1049E00030BD00BF2DE9F0470446006E82B091460D
:1049F0001E4698B91368236052686260D9F808208F
:104A0000A260D9F80C20E260336063687360A36829
:104A1000B360E368F36002B0BDE8F08701380128B5
:104A200000F283804FF08043A1F10408236104F178
:104A3000140504F1200A216F58F8040F05F088FFCF
:104A4000E860236E012B014671D0D4F89430686A77
:104A5000D4F89020C3F11E03081A80FB0201C3F1B1
:104A6000200720FA03F201FA07F7203B42EA070287
:104A70005CBF41FA03F31A43AA61616FE86B05F06A
:104A800067FF616F0746A86E05F062FFA866616F59
:104A900005F05EFFA36F1844A866D4F8883001A91A
:104AA000184405F09BFD0199AA6EC1F11E0180FB1F
:104AB0000223C1F1200E22FA01F003FA0EFE203982
:104AC00058BF43FA01F140EA0E0058BF0843C4F84A
:104AD0008C00A969C91B05F03BFF38442863D4F852
:104AE0008C00A96EC0F1804005F032FFA866A16E6F
:104AF000E86805F02DFF296BC701E06E05F028FF7F
:104B00002B6BEB6303F1C072B2F1407F88BF07EB00
:104B1000C017EA682F606A62043555458BD1484654
:104B2000224604F1100105F025FF23686CE7A16E11
:104B300005F00EFFC0012860EEE700BF70B5044627
:104B40000D46164600214FF4AA72FBF7C0FB124B2C
:104B5000236301224FF080416363A363E363C4F8DE
:104B60002021C4F81C21C4F80821C4F8DC10C4F8C2
:104B7000EC1045B12B68C4F888306B68C4F88C30F1
:104B8000AB68C4F89030002E04DD044BC4F85461C7
:104B9000C4F8583170BD00BF20A1070040420F008B
:104BA000032A17D0022A2BD0012A2BD00023164A21
:104BB000C0F88030036143618361C3618365C3656D
:104BC000036643668366C366C267026342638263A9
:104BD000C26370474B6E0C49C0F880205A1E0023F8
:104BE000C267036143618361C3618365C365036613
:104BF00043668366C366016341638163C163704733
:104C00000B6EE8E7CB6DE6E720A107000029F0B5C1
:104C10003FDD244D016001240A229D23B1F5803F30
:104C200045608460C260036139DB4FF000516FF072
:104C300000434FF4004240F2DC571B4E416141F605
:104C40009A1546F2666403218361C36103624FF0E3
:104C5000010E44F6CC434762866240F26667C56245
:104C600048F26666046347F69915416342F2107490
:104C70008263426441F2883140F6C412C0F840E0D9
:104C80008764C364036546658565C46501664266DD
:104C9000F0BD01240A229D238460C26003614903A0
:104CA000C5E700BF40420F0065F8993E0029C8BF24
:104CB000204BF0B54FF00002C8BF80E80A00052481
:104CC0001D4B82604FF08042C46003614FF4C824E2
:104CD0004FF4F04342614FF47A62184F18498461EF
:104CE0004FF420560324C3610363426241F28833C8
:104CF0000122DFF854E0134D8762C66247F2305755
:104D00004FF42046446381634FF47A344FF41041EA
:104D10000264436442F21072036640F6C413C0F8A2
:104D200020E08764C664056544658165C2654366A5
:104D3000F0BD00BF40420F00A086010065F8993E1B
:104D4000801A060000102700C0270900F0B5D0F82F
:104D50004471D0F854412744C0F8447191E8600090
:104D60008C68002CB8BF6442002EB8BF7642B442B3
:104D7000B8BF3446002DB8BF6D42AC42B8BF2C4618
:104D8000B4F5482F85B003DDD0F85C41002C3DD050
:104D9000D0F85051002DC4BFA5EBE235C0F85051FA
:104DA000D0F85841D0F84061A6424FEA440403DCF1
:104DB000A74228DD032B26D00125C0F84441C0F8C6
:104DC0001C510024C0F80031C0F840410E684C6806
:104DD0008B68521082FB066782FB044582FB03232B
:104DE000360C240C120C00F1DC0142EA034246EAC4
:104DF000074644EA054401A801960294039205F08F
:104E0000A5F905B0F0BD002DD6DCDAE7094E046146
:104E10004FF4803544618461C4618465C46504666F
:104E200044668466C466066346638663C663C0F8E8
:104E30005051B5E720A107002DE9F04F894600F158
:104E4000880190460EC90446A1B0C8F82C10C8F8D5
:104E5000302000F59A7100F59472C8F8343008F1EA
:104E60001400D9F8143003F06FFAD9F80C00D8F810
:104E700014206568D4F8A010D8F81830D8F81C7041
:104E8000D4F834610241521B511AA26843FA00F56A
:104E9000AD1AD4F83831D4F83C2181EAE17E0341DF
:104EA0000241AEEBE17E0641D4F8A410C4F8B03064
:104EB0000741E068C4F8B4206D1AC4F8AC607146CC
:104EC0003F1A7046D4F8A86005F036FD85EAE57A09
:104ED000AAEBE57ABF1B51460646504605F02CFD6D
:104EE00087EAE775A5EBE77529460644284605F0ED
:104EF00023FD304405F0C6FED4F88020D4F80431F8
:104F0000022A00F3AB80C8F83C20002B00F0A980F7
:104F1000002A2DDDD8F81000D4F88430D9F82410F8
:104F20001B1A83EAE370A0EBE370B0EB810F00F390
:104F3000A380012A1CDDB0EB410F40F3D480D9F8E7
:104F40005C10CA4A2263013901200023E167C4F8DA
:104F5000800023616361A361E361A365E365236668
:104F60006366A366E3666263A263E263C8F83C001B
:104F7000D4F84031D9F80420934204DAD9F800106B
:104F80000B44C4F84031D9F81030D4F828119942B4
:104F90006CDCD4F82C118B4268DBD4F83011B1EB07
:104FA000430F63DCD4F8AC10D4F89470D9F81850DF
:104FB000C81B80EAE073A3EBE073AB4240F3A08030
:104FC000D9F80030C4F804310123C4F808310023B3
:104FD000A648C4F88030C4F80C311023C4F810314E
:104FE000E067D4F81401D9F82030984280F2AE80FE
:104FF000D4F804319A4240F3B480D9F80020D9F8AB
:10500000080013440128C4F8043100F0BE83D4F82A
:10501000B020D4F8B430C4F89410C4F89820C4F880
:105020009C300023914A236102209A460121C4F852
:1050300020015046C4F81C11C4F818116361A36123
:10504000E361A365E36523666366A366E3662263A3
:105050006263A263E26321B0BDE8F08F13BBC8F8BE
:105060003C20D8F81030C4F8843051E74FF0000AE3
:10507000504621B0BDE8F08F00237C4AC4F8803050
:1050800023616361A361E361A365E36523666366EE
:10509000A366E366E26722636263A263E263C8F821
:1050A0003C3065E7D8F83C30022B42D0D9F80830C4
:1050B000002B7FF42DAF032A7FF42AAF236FD9F89A
:1050C0001C10181A80EAE073A3EBE073B3EB410FF6
:1050D000FFF620AFD4F80831002B7FF41BAF02237A
:1050E000C8F83C3016E7022A3FF442AF88427FF707
:1050F0003FAFD9F860105D4A22630139022024E7EE
:10510000D4F8B030D4F89800181A80EAE073A3EB12
:10511000E0739D42FFF654AFD4F8B430D4F89C004D
:10512000181A80EAE073A3EBE0739D42BFF659AF13
:1051300046E7236FD9F81C101D1A85EAE573A3EB27
:10514000E5738B42B2DAC8F83C20E1E60020D9F8DA
:105150000030C4F814010A20C4F80431C4F8100166
:1051600048E7D9F80C30D8F814106569D8F8182039
:10517000E669A06919414D1BD8F81C101A4141FA83
:1051800003F39E1BD4F89830121AD21AEF1BD4F8EE
:105190009C30C4F8C82087EAE771F31AA1EBE771E5
:1051A0004FF0010A4FF0000B83EAE37682EAE275E2
:1051B000C4F8CC30C4F8C4700846C4F820A1C4F8C0
:1051C00018B1A6EBE376A5EBE27505F0B5FB294631
:1051D0000746284605F0B0FB31460744304605F047
:1051E000ABFB384405F04EFDD4F8083160675345F9
:1051F0003ED0A16FD9F85C20914239DC226FD9F8FA
:105200001C10101A80EAE072A2EBE0728A422FDDD5
:10521000D4F80C31534500F01884D9F80830D9F887
:105220000020C4F804215345C4F810A1C4F80CA10F
:1052300000F01C8404F1AC010EC9C4F89410C4F849
:105240009820C4F89C300023084A23616361A3615D
:10525000E361A365E36523666366A366E3669A4636
:1052600022636263A263E26302E700BF20A107003A
:10527000D4F80C21012A00F07182D9F80400D4F886
:10528000181105900420C4F81001002940F07B8219
:10529000002A40F07882003318BF0123D4F8E0C020
:1052A000D4F8F020D4F8E810D4F8EC50D4F8DC00AE
:1052B000D4F8F470D4F8E4E0C4F818318CFB02237D
:1052C0000E46C5FB00230691D4F8F810D4F8985088
:1052D000C7FB0E23C1FB0623960F46EA8306D4F8CC
:1052E0009410D4F8AC30D4F8B420D4F8B070C4F82A
:1052F000FC60A3EB010BD9F82830D4F89C109E4237
:10530000A2EB01020492A7EB0507D4F84031059AFD
:1053100080F24382934280F24682D4F8D020D9F8BA
:105320002C10A2EB0B0585EAE572A2EBE5728A422E
:1053300000F38182D4F8D420D51B85EAE572A2EB74
:10534000E5729142C0F27782D4F8D820049D551BB3
:1053500085EAE572A2EBE5729142D4F80021C0F231
:105360006C82032A00F069820025022A30DCD4F81E
:10537000D020D9F83010A2EB0B0686EAE672A2EB39
:10538000E6728A4212DCD4F8D420D61B86EAE67292
:10539000A2EBE672914209DBD4F8D820049E961B5A
:1053A00086EAE672A2EBE672914211DAD9F8082099
:1053B000049EC4F8D0B0012A14BF02210A210022A1
:1053C000C4F8D470C4F8D860C4F84811C4F84421B3
:1053D000002D00F0EA81D4F81CA1BAF1000F40F0D2
:1053E000EB81D4F84821C4F814A1002A39DD049EC9
:1053F00087FB0701CBFB0B01C6FB0601CDE90601CC
:10540000079902F1FF3EC20B42EA414271001F912F
:105410000599B748C4F848E1BEFA8EFA1C904FEAE5
:10542000470E4FEA4B008B424FEA5A1A1D90CDF8B7
:1054300078E0C0F22682D9F83830D9F834100293D7
:1054400004F15803019100931CA904F1300304F105
:10545000100005F0B7FED4F814319842C8BFC4F864
:105460001401002D00F02381D4F800214FF0804377
:105470000D9311931593012A4FF000030E930F9390
:105480001093129313931493D9F8443040F3E482A9
:10549000059304F1EC031846089304F1DC031D4660
:1054A00016AA0DA9099305F033FB28460DA919AAE0
:1054B00005F02EFB1A9B179A189E1698199DD4F882
:1054C000B810D21A1B9B451BF31AD213DB13ED1332
:1054D00000261E921F931D951C9605F039FA594619
:1054E0000646199805F034FAD4F8BC10361A179805
:1054F00005F02EFA394606441A9805F029FAD4F830
:10550000C010361A189805F023FA049906441B981F
:1055100005F01EFA04F1100304F158021946069230
:10552000059AD9F840500292321A084606990A9311
:10553000009104F130031CA901950B9305F042FE84
:10554000D4F814319842C8BFC4F8140110A916AA9F
:10555000089805F0DDFA19AA10A9099805F0D8FAFB
:1055600016981999179E189D1A9A1B9B411AB21AE0
:10557000EB1AC913D213DB1300251D91D4F8B81010
:105580001E921F931C9505F0E3F95946054619989C
:1055900005F0DEF9D4F8BC102D1A179805F0D8F9EB
:1055A000394605441A9805F0D3F9D4F8C0102D1ADD
:1055B000189805F0CDF9049905441B9805F0C8F931
:1055C000D9F840300699059A02928DE80A002A1A05
:1055D0000B9B0A981CA905F0F5FDD4F814319842EC
:1055E000C8BFC4F8140116AA089813A905F090FAC8
:1055F00019AA13A9099805F08BFA1A9B179A189EF5
:105600001698199DD4F8B810D21A1B9B451BF31A93
:10561000D213DB13ED1300261E921F931D951C96CB
:1056200005F096F959460646199805F091F9D4F80F
:10563000BC10361A179805F08BF9394606441A98AB
:1056400005F086F9D4F8C010361A189805F080F9DC
:10565000049906441B9805F07BF9059BD9F8405046
:105660000293069B0093321A0B9B0A9801951CA982
:1056700005F0A8FDD4F81431D4F8E010D4F8E420F3
:10568000C4F8B8B09842049BC8BFC4F81401C4F869
:10569000C030D4F8DC00D4F8E830C4F8BC70C4F8EA
:1056A000EC00C4F8F010C4F8F420C4F8F830D9F8CD
:1056B0000830012B40F09580A06BE36B626B984241
:1056C000B8BF18469042B8BF1046A067E26F8AB1D3
:1056D000D9F8641001EBD1735B109A420CDB8A425B
:1056E000C0F2BE81D9F860309A4205DB02E000BF0B
:1056F0000080FFFFD9F85C3083427FF7B9ACD4F863
:105700001421D9F848309A42C0F2D580D4F84C31EF
:105710000133052B40F39581D9F808200023012A95
:10572000C4F84C3100F0AA8104F1AC010EC9C4F8F0
:105730009410C4F89820C4F89C300023C94A23610F
:105740006361A361E361A365E36523666366A366A2
:10575000E36622636263A263E26389E4D4F81421FE
:10576000D9F848309A427CDAD9F80420D4F82431A8
:105770000592934275DAD9F8002007211344C4F842
:105780002431C4F81011012388E50023C4F89430B3
:10579000C4F89830C4F89C3043E4934203DAD4F858
:1057A0000021022A01DC0025E1E5D4F84821002A85
:1057B0003FF45CAC00250EE6069AC4F8F8200023FE
:1057C000049AC4F8EC00C4F8F0C0C4F8F4E0C4F8DB
:1057D000B8B0C4F8BC70C4F8C020C4F81C319A46F4
:1057E00046E4216E666BD4F838B0084605F0A4F89C
:1057F000A16EE56B0746084605F09EF885FB0001A3
:10580000C7FB0B01E36EE76BA56BC20B42EA41429B
:1058100018461946164405F08FF80146384605F03B
:105820008BF8E36B28449842B8BF1846B042B8BF23
:105830003046A0674AE7D4F80021D9F80810049E42
:10584000C4F8D0B0012914BF01250A250021C4F8ED
:105850004851C4F8D470C4F8D860C4F84411012584
:1058600083E5D9F80030C4F8243106210023012251
:10587000C4F81011C4F81C21C4F80C319A46FFF783
:10588000F7BBD9F83410D9F83800774B490083FBBF
:1058900001E683FB00E3A6EBE171A3EBE07304F107
:1058A00058008DE80B0004F130031CA904F110002E
:1058B00005F088FCCFE56069D4F89470D9F80CE065
:1058C000D8F81430A169D4F89860E269D4F89C50F3
:1058D000074407FA0EF7DB1B0E4443FA0EF1D8F823
:1058E0001830D8F81C0006FA0EF61544A3EB060B88
:1058F00005FA0EF30493C31A4BFA0EFB43FA0EF3A8
:1059000081EAE17C0022ACEBE17C5D46C4F84C21ED
:1059100083EAE372A2EBE3726146002D6046B8BFF2
:105920006D42069205F008F829460590284605F0D4
:1059300003F8069A1146059A02EB000B084604F09C
:10594000FBFF584405F09EF9D4F808215AB9236F9B
:10595000D9F84C10A3EB000E8EEAEE73A3EBEE73B6
:105960008B42BFF685ABD9F8583098427FF780ABB1
:10597000D9F854309842BFF67BABA16FE167002A9B
:1059800000F087802269636922606360A269E3692D
:10599000A260E360226B636B22626362A26BE36BC3
:1059A000A262E362A26DE36D22646364226E636EA1
:1059B000049DA264E364A26EE36E2067C4F888705D
:1059C000C4F88C60C4F890502265D4F894206365C4
:1059D000D4F89830C4F8A020D9F86020C4F8A430D6
:1059E000D4F89C30C4F8A830D8F81030C4F884300B
:1059F0000023C4F80C31C4F808318A424FF0010387
:105A0000C4F88030C4BF0223C4F88030D9F86430B1
:105A10008B42C4BF0323C4F88030D9F80C30D4F8CB
:105A20008020C8F83C209840049BC8F83800C8F88B
:105A30002C70C8F83060C8F834304FF0020AFFF715
:105A400017BBC4F84C31FFF713BB0223C4F8103165
:105A5000D9F80430059396E617D003EB630317E5F6
:105A60000B4649E620A1070056555555C4F894B099
:105A7000C4F898B0C4F89CB0FFF7E5BBC4F8943004
:105A8000C4F89830C4F89C3057E603EBA3030593A1
:105A9000FFE4014641F69A1004F04EFF216F824662
:105AA00046F2666004F048FFA16F50446AE700BF09
:105AB0000B6870B5C0F8D0314B68C0F8D4310446DB
:105AC0008B68049DC0F8D831C0F8CC2100F5AA71CC
:105AD00000F5DE72059EFFF7AFF9D4F8E8312B60D0
